{
  "transactions": [
    {
      "hash": "0x3222fbeab245083e47bbf8e5f06e903f1b63ec3e43c75e1b2a29f0a2befb32bf",
      "transactionType": "CALL",
      "contractName": null,
      "contractAddress": "0xC28F3dBD726C4f19F3d94cf7d9ED77f84c8CC26B",
      "function": "createVeToken(address,string,string)",
      "arguments": [
        "0x96A1B843d0b256bCffe9E107b77aa38e1cBBDD5C",
        "vePND",
        "vePND"
      ],
      "transaction": {
        "from": "0x4b30b739A4C58Af76C2cBa212bde574c1e8B57fd",
        "to": "0xC28F3dBD726C4f19F3d94cf7d9ED77f84c8CC26B",
        "gas": "0x307172",
        "value": "0x0",
        "input": "0xa3ab6cb600000000000000000000000096a1b843d0b256bcffe9e107b77aa38e1cbbdd5c000000000000000000000000000000000000000000000000000000000000006000000000000000000000000000000000000000000000000000000000000000a000000000000000000000000000000000000000000000000000000000000000057665504e4400000000000000000000000000000000000000000000000000000000000000000000000000000000000000000000000000000000000000000000057665504e44000000000000000000000000000000000000000000000000000000",
        "nonce": "0x18f",
        "chainId": "0xaa36a7"
      },
      "additionalContracts": [],
      "isFixedGasLimit": false
    }
  ],
  "receipts": [
    {
      "status": "0x1",
      "cumulativeGasUsed": "0xe1ede0",
      "logs": [
        {
          "address": "0xC28F3dBD726C4f19F3d94cf7d9ED77f84c8CC26B",
          "topics": [
            "0x799524533de4a5387b2ffbb3c1adfd55f9dd55e4e47b2b613134a9901a02aaf3",
            "0x00000000000000000000000096a1b843d0b256bcffe9e107b77aa38e1cbbdd5c",
            "0x0000000000000000000000000d5c5d543badd85aac8ac570c1bd3797a2ceba43"
          ],
          "data": "0x0000000000000000000000000000000000000000000000000000000000000040000000000000000000000000000000000000000000000000000000000000008000000000000000000000000000000000000000000000000000000000000000057665504e4400000000000000000000000000000000000000000000000000000000000000000000000000000000000000000000000000000000000000000000057665504e44000000000000000000000000000000000000000000000000000000",
          "blockHash": "0x9a96f2af64314a8bf866aec0c1afedf4e2b2d915bf9ae51eabde7f6962ecbae3",
          "blockNumber": "0x70fc8f",
          "transactionHash": "0x3222fbeab245083e47bbf8e5f06e903f1b63ec3e43c75e1b2a29f0a2befb32bf",
          "transactionIndex": "0x66",
          "logIndex": "0xa3",
          "removed": false
        }
      ],
      "logsBloom": "0x00000000000000000000000200000000000000000000000000000000000000000000000081000000000000000000000000200000000000000000000000000000000000000000000000000000000000000000000000000000000000000008000000000000010000000002000000000000000020000000000000000400000000000000000000000000000000000000000000000000000000000000000000000000000000000000000000000000000000000000000000000000000000200000000000000000000000000000000000000000000000000000040000000000000000000000000000000000000000000000000000000000000000000010000000000000",
      "type": "0x2",
      "transactionHash": "0x3222fbeab245083e47bbf8e5f06e903f1b63ec3e43c75e1b2a29f0a2befb32bf",
      "transactionIndex": "0x66",
      "blockHash": "0x9a96f2af64314a8bf866aec0c1afedf4e2b2d915bf9ae51eabde7f6962ecbae3",
      "blockNumber": "0x70fc8f",
      "gasUsed": "0x231531",
      "effectiveGasPrice": "0x6bef28f0f",
      "from": "0x4b30b739A4C58Af76C2cBa212bde574c1e8B57fd",
      "to": "0xC28F3dBD726C4f19F3d94cf7d9ED77f84c8CC26B",
      "contractAddress": null
    }
  ],
  "libraries": [],
  "pending": [],
  "returns": {},
  "timestamp": 1735803856,
  "chain": 11155111,
  "commit": "298f4f9"
}