{
  "transactions": [
    {
      "hash": "0xfb7c0cb269a054f91c57352e74a1d664e6a0ceefb8c810cb1797f5c7c666b3c7",
      "transactionType": "CALL",
      "contractName": null,
      "contractAddress": "0xC28F3dBD726C4f19F3d94cf7d9ED77f84c8CC26B",
      "function": "createVeToken(address,string,string)",
      "arguments": [
        "0x5d8AC3f62900de1C7133A71b0e70C68f55feEb43",
        "veST",
        "veST"
      ],
      "transaction": {
        "from": "0x5AC7577C0B0F8E7f55B9144fBcB64AB4778084d5",
        "to": "0xC28F3dBD726C4f19F3d94cf7d9ED77f84c8CC26B",
        "gas": "0x30715a",
        "value": "0x0",
        "input": "0xa3ab6cb60000000000000000000000005d8ac3f62900de1c7133a71b0e70c68f55feeb43000000000000000000000000000000000000000000000000000000000000006000000000000000000000000000000000000000000000000000000000000000a00000000000000000000000000000000000000000000000000000000000000004766553540000000000000000000000000000000000000000000000000000000000000000000000000000000000000000000000000000000000000000000000047665535400000000000000000000000000000000000000000000000000000000",
        "nonce": "0x75",
        "chainId": "0xaa36a7"
      },
      "additionalContracts": [],
      "isFixedGasLimit": false
    }
  ],
  "receipts": [
    {
      "status": "0x1",
      "cumulativeGasUsed": "0x14255f1",
      "logs": [
        {
          "address": "0xC28F3dBD726C4f19F3d94cf7d9ED77f84c8CC26B",
          "topics": [
            "0x799524533de4a5387b2ffbb3c1adfd55f9dd55e4e47b2b613134a9901a02aaf3",
            "0x0000000000000000000000005d8ac3f62900de1c7133a71b0e70c68f55feeb43",
            "0x00000000000000000000000010d6cbe3bd3779ef6551856812c06a1050257c10"
          ],
          "data": "0x000000000000000000000000000000000000000000000000000000000000004000000000000000000000000000000000000000000000000000000000000000800000000000000000000000000000000000000000000000000000000000000004766553540000000000000000000000000000000000000000000000000000000000000000000000000000000000000000000000000000000000000000000000047665535400000000000000000000000000000000000000000000000000000000",
          "blockHash": "0xe9f1470a37820b9608b8ed1ba8e8c15defeb7b7c0d9af77ec41de6e52e20149a",
          "blockNumber": "0x697f6e",
          "transactionHash": "0xfb7c0cb269a054f91c57352e74a1d664e6a0ceefb8c810cb1797f5c7c666b3c7",
          "transactionIndex": "0x46",
          "logIndex": "0x6f",
          "removed": false
        }
      ],
      "logsBloom": "0x00000000000000000000000000000000000000000000000000000000000000000000000081000000000000000000000000000400000000000000000000000000000000000000000000000000000000000000000000000000000000000000000000000000000000000002004000000000000020000000000000000000000000000000000000000000000000000000000000000000000040000000000000000000000000000000000010000000000000000000000000000000400000200000000000000000000000000000000000000000000000000000000000000000000000000000000000000000000000000000000000000000000000000010000004000000",
      "type": "0x2",
      "transactionHash": "0xfb7c0cb269a054f91c57352e74a1d664e6a0ceefb8c810cb1797f5c7c666b3c7",
      "transactionIndex": "0x46",
      "blockHash": "0xe9f1470a37820b9608b8ed1ba8e8c15defeb7b7c0d9af77ec41de6e52e20149a",
      "blockNumber": "0x697f6e",
      "gasUsed": "0x231520",
      "effectiveGasPrice": "0x2e329bdb",
      "from": "0x5AC7577C0B0F8E7f55B9144fBcB64AB4778084d5",
      "to": "0xC28F3dBD726C4f19F3d94cf7d9ED77f84c8CC26B",
      "contractAddress": null
    }
  ],
  "libraries": [],
  "pending": [],
  "returns": {},
  "timestamp": 1729480477,
  "chain": 11155111,
  "commit": "311eb62"
}