{
  "transactions": [
    {
      "hash": "0x2a330051fea14a48f7a2ad9b56365e61c58291205cc0a1e6efa0709005627741",
      "transactionType": "CREATE",
      "contractName": "MultiTokenFeeDistributor",
      "contractAddress": "0x9C27451043fE41a701422f513a164C299F3C3085",
      "function": null,
      "arguments": null,
      "transaction": {
        "from": "0x5AC7577C0B0F8E7f55B9144fBcB64AB4778084d5",
        "gas": "0x32dc9f",
        "value": "0x0",
        "input": "0x6080806040523461001657612d6a908161001c8239f35b600080fdfe6080604052600436101561001257600080fd5b60003560e01c8062d440c114611767578063071cb5ad146117415780630cc672e4146117115780630f6592ef146116d85780631e83409a146115ee578063326a9407146115d557806338b74b47146115895780633902b9bc146114bf5780634cb654af146114775780634e67428d146113b35780634f2bfe5b146113795780635a4b8c1d146113435780635fa7b5841461120257806368662ea0146110c25780636e1dc66e146110a25780637d9332271461107b5780638721b78514610ffb5780638736659b14610fd057806389afcb4414610e3d5780638fe8a10114610e0a578063906b1dce14610c155780639d63848a14610b40578063af81c5b914610a1b578063b0f3b73414610980578063b4ba9e1114610880578063b603cd8014610703578063c0c53b8b14610524578063c23c2262146102b2578063e1d2bf6914610283578063e855dd0714610246578063ed3bc8b914610219578063f3648241146101ea578063f4359ce5146101cc5763f851a4401461019157600080fd5b346101c75760003660031901126101c757600080516020612c95833981519152546040516001600160a01b039091168152602090f35b600080fd5b346101c75760003660031901126101c757602060405162093a808152f35b346101c75760403660031901126101c757602061021161020861179f565b602435906119b7565b604051908152f35b346101c75760203660031901126101c757602061023c61023761179f565b6127b9565b6040519015158152f35b346101c75760003660031901126101c75760207f7696fbeb7b2058c668a217a0eec72abde89fab471f589cf41a33a6b2983cd60154604051908152f35b346101c75760203660031901126101c757602060016102a86102a361179f565b611809565b0154604051908152f35b346101c7576020806003193601126101c75767ffffffffffffffff6004358181116101c757366023820112156101c75780600401359182116101c75760249260053660248560051b850101116101c75761030a611b23565b83156105125760ff90600080516020612cb58339815191529360ff855460081c1661050057600080516020612cd5833981519152544210156104f3575b60005b86811061036e576001600080516020612cf583398151915255602060405160018152f35b80831b8201880135906001600160a01b03808316908184036101c757610393846127b9565b156104e1576103a184611809565b93845490888b5416806104b8575b6104a6575b62093a80809204828102928184041490151715610491576103dc928b5460101c169033611c0a565b90816103ef575b5050600191500161034a565b60405163a9059cbb60e01b815233600482015260248101839052908890829060449082906000905af190811561048557600091610458575b50156104465761043d600180940191825461186b565b905589806103e3565b6040516312171d8360e31b8152600490fd5b6104789150883d8a1161047e575b61047081836117e7565b810190611842565b8b610427565b503d610466565b6040513d6000823e3d90fd5b8c634e487b7160e01b60005260116004526000fd5b90506104b181612817565b42906103b4565b50610e1082018083116104cc5742116103af565b8d634e487b7160e01b60005260116004526000fd5b604051630cbdb7b360e41b8152600490fd5b6104fb612184565b610347565b60405163189c2be360e11b8152600490fd5b6040516311491d2960e31b8152600490fd5b346101c75760603660031901126101c75761053d61179f565b6105456117b5565b906044356001600160a01b038116908190036101c7577ff0c57e16840df040f15088dc2f81fe391c3923bec73e23a9662efc9c229c6a009283549060ff8260401c16159367ffffffffffffffff8316801590816106fb575b60011490816106f1575b1590816106e8575b506106d65767ffffffffffffffff198316600117865561065492856106b7575b506105d8612c13565b6105e0612c13565b6001600080516020612cf583398151915255600080516020612cb5833981519152805462010000600160b01b03191660109290921b62010000600160b01b0316919091179055600080516020612c9583398151915280546001600160a01b0319166001600160a01b03909216919091179055565b600080516020612d1583398151915280546001600160a01b031916909117905561067a57005b68ff00000000000000001981541690557fc7f505b2f371ae2175ee4913f4499e1f2633a7b5936321eed1cdaeb6115181d2602060405160018152a1005b68ffffffffffffffffff191668010000000000000001178655866105cf565b60405163f92ee8a960e01b8152600490fd5b905015876105af565b303b1591506105a7565b86915061059d565b346101c75760003660031901126101c757600080516020612c95833981519152546001600160a01b03908116330361086e57600080516020612cb5833981519152805461ff00191661010017905560005b600080516020612c758339815191525481101561086c578161077582611885565b90549060031b1c166040516370a0823160e01b81523060048201526020918282602481845afa9182156104855760009261083d575b50816107bc575b505050600101610754565b600080516020612d158339815191525460405163a9059cbb60e01b81529086166001600160a01b03166004820152602481019290925282908290816000816044810103925af191821561048557600092610820575b505015610446578280806107b1565b6108369250803d1061047e5761047081836117e7565b8380610811565b9091508281813d8311610865575b61085581836117e7565b810103126101c7575190856107aa565b503d61084b565b005b604051634ca8886760e01b8152600490fd5b346101c75760403660031901126101c7576108d6600261089e61179f565b6108a66117b5565b906108af611b23565b6108b882611b53565b949091015490946001600160a01b0394909160101c85168484611c0a565b92836108fa575b6020846001600080516020612cf583398151915255604051908152f35b60405163a9059cbb60e01b81526001600160a01b0392909216600483015260248201849052909160209183916044918391600091165af190811561048557600091610961575b50156104465760016020920161095782825461186b565b90558280806108dd565b61097a915060203d60201161047e5761047081836117e7565b83610940565b346101c75760203660031901126101c75761099961179f565b600080516020612c95833981519152546001600160a01b0391908216330361086e57167f7696fbeb7b2058c668a217a0eec72abde89fab471f589cf41a33a6b2983cd605816bffffffffffffffffffffffff60a01b8254161790557f59a407284ae6e2986675fa1400d6498af928ed01f4fd2dd6be4a2a8b4fc35b34600080a2005b346101c75760403660031901126101c757610a3461179f565b600080516020612c95833981519152546001600160a01b0316330361086e57610a5c816127b9565b610b2e57610a6981611809565b62093a80908160243504828102928184041490151715610b1857600581838093550155600080516020612cd5833981519152805415610b10575b5050600080516020612c758339815191529081549168010000000000000000831015610afa5782610adc91600161086c95019055611885565b90919060018060a01b038084549260031b9316831b921b1916179055565b634e487b7160e01b600052604160045260246000fd5b558180610aa3565b634e487b7160e01b600052601160045260246000fd5b60405163630b374b60e01b8152600490fd5b346101c75760003660031901126101c75760405180600080516020612c75833981519152805480845260208094019081926000527f7786cf01d28ed2cdb16fa4199a070b4bd3766c3a15acb7a51b2b400ec5ff05189060005b86828210610bf8578686610baf828803836117e7565b604051928392818401908285525180915260408401929160005b828110610bd857505050500390f35b83516001600160a01b031685528695509381019392810192600101610bc9565b83546001600160a01b031685529093019260019283019201610b99565b346101c75760403660031901126101c75760043567ffffffffffffffff8082116101c757366023830112156101c7578160040135916024918311610afa578260051b9060405193610c6960208401866117e7565b845260246020850192820101903682116101c757602401915b818310610dea57505050610c946117b5565b90610c9d611b23565b610ca682611b53565b8551600096929590939092875b858110610cfd575b5050505050505081610ce5575b6001600080516020612cf583398151915255602060405160018152f35b6001610cf4910191825461186b565b90558080610cc8565b8151811015610dd557600581901b8201602001516001600160a01b03908116908115610dce57610d388682600288015460101c168985611c0a565b9182610d4a575b505050600101610cb3565b60405163a9059cbb60e01b81526001600160a01b0391909116600482015260248101839052929a919290602090829060449082906000908c165af190811561048557600091610daf575b501561044657600191610da691611878565b98908a80610d3f565b610dc8915060203d60201161047e5761047081836117e7565b8b610d94565b5050610cbb565b86634e487b7160e01b60005260326004526000fd5b82356001600160a01b03811681036101c757815260209283019201610c82565b346101c75760003660031901126101c757602060ff600080516020612cb58339815191525460081c166040519015158152f35b346101c7576020806003193601126101c757610e5761179f565b610e60816127b9565b15610fbe57610e6e81611809565b600080516020612cb583398151915260ff815460081c16610500576040516370a0823160e01b81523360048201526001600160a01b03841691908581602481865afa928315610485578691600094610f8d575b5083610ed2575b5060405160018152f35b606460009460405195869384926323b872dd60e01b845233600485015230602485015260448401525af19182156104855760ff92610f70575b50600080516020612cd583398151915254421015610f63575b54169081610f4c575b50610f3d575b8080808481610ec8565b610f4690612817565b81610f33565b905054610e108101809111610b1857421183610f2d565b610f6b612184565b610f24565b610f8690863d881161047e5761047081836117e7565b5085610f0b565b8281939295503d8311610fb7575b610fa581836117e7565b810103126101c7578590519287610ec1565b503d610f9b565b60405163c1ab6dc160e01b8152600490fd5b346101c75760003660031901126101c7576020600080516020612cd583398151915254604051908152f35b346101c75760003660031901126101c757600080516020612c95833981519152546001600160a01b0316330361086e577fdbe6ac1081ebd8e648718341126659456f4009fcadfe1c23f66f5e61522610b26020600080516020612cb583398151915280549060ff8083161516809260ff19161790556040519015158152a1005b346101c75760203660031901126101c75760206110996102a361179f565b54604051908152f35b346101c75760203660031901126101c757602060056102a86102a361179f565b346101c7576020806003193601126101c7576110dc61179f565b600080516020612c95833981519152546001600160a01b0391908216330361086e57611107816127b9565b156111f0576040516370a0823160e01b8152306004820152908216918382602481865afa9081156104855784926000926111bd575b50600080516020612d158339815191525460405163a9059cbb60e01b815291166001600160a01b03166004820152602481019190915291829081600081604481015b03925af1908115610485576000916111a0575b50156104465760405160018152f35b6111b79150823d841161047e5761047081836117e7565b82611191565b8381949293503d83116111e9575b6111d581836117e7565b810103126101c7579051839161117e61113c565b503d6111cb565b6040516380eb2a0160e01b8152600490fd5b346101c75760203660031901126101c75761121b61179f565b600080516020612c95833981519152546001600160a01b0391908216330361086e57611246816127b9565b156104e157600080516020612c75833981519152805490916000199190841660005b828110611318575b505060001982146104e1576000198101908111610b185781818593106112d3575b505050805480156112bd5760001901916112aa83611885565b909182549160031b1b1916905555600080f35b634e487b7160e01b600052603160045260246000fd5b611310926112e36112ec93611885565b93905492611885565b92909360031b1c169060018060a01b038084549260031b9316831b921b1916179055565b818380611291565b818661132383611885565b90549060031b1c161461133857600101611268565b925085905080611270565b346101c75760003660031901126101c757600080516020612d15833981519152546040516001600160a01b039091168152602090f35b346101c75760003660031901126101c757600080516020612cb58339815191525460405160109190911c6001600160a01b03168152602090f35b346101c75760003660031901126101c757600080516020612c95833981519152546001600160a01b03908116330361086e577f7696fbeb7b2058c668a217a0eec72abde89fab471f589cf41a33a6b2983cd60581815416801561146557600080516020612c9583398151915280546001600160a01b0319166001600160a01b0390921691909117905554167f756f845176805c8ebf249854e909627308157f63c96e470e44a9e8549ba6fb1e600080a2005b604051634674fb0d60e11b8152600490fd5b346101c75760003660031901126101c7577f7696fbeb7b2058c668a217a0eec72abde89fab471f589cf41a33a6b2983cd605546040516001600160a01b039091168152602090f35b346101c75760203660031901126101c7576114d861179f565b6114e1816127b9565b156104e1576114ef81611809565b600080516020612c95833981519152546001600160a01b03163314908115611550575b501561153f5761086c90600080516020612cd58339815191525442106128175761153a612184565b612817565b6040516282b42960e81b8152600490fd5b600080516020612cb58339815191525460ff16915081611572575b5082611512565b905054610e108101809111610b185742118261156b565b346101c75760403660031901126101c7576115a261179f565b60036115b56115af6117b5565b92611809565b019060018060a01b03166000526020526020604060002054604051908152f35b346101c75760003660031901126101c75761086c612184565b346101c75760203660031901126101c75761163b61160a61179f565b611612611b23565b600261161d82611b53565b929091015490936001600160a01b0392909160101c83168433611c0a565b918261165f575b6020836001600080516020612cf583398151915255604051908152f35b60405163a9059cbb60e01b8152336004820152602481018490529160209183916044918391600091165af1908115610485576000916116b9575b5015610446576001602092016116b082825461186b565b90558280611642565b6116d2915060203d60201161047e5761047081836117e7565b83611699565b346101c75760203660031901126101c757600435600052600080516020612c558339815191526020526020604060002054604051908152f35b346101c75760003660031901126101c757602060ff600080516020612cb583398151915254166040519015158152f35b346101c75760403660031901126101c75761175a61179f565b60046115b56115af6117b5565b346101c75760403660031901126101c75760026117856102a361179f565b016024356000526020526020604060002054604051908152f35b600435906001600160a01b03821682036101c757565b602435906001600160a01b03821682036101c757565b6080810190811067ffffffffffffffff821117610afa57604052565b90601f8019910116810190811067ffffffffffffffff821117610afa57604052565b6001600160a01b031660009081527f7696fbeb7b2058c668a217a0eec72abde89fab471f589cf41a33a6b2983cd6076020526040902090565b908160209103126101c7575180151581036101c75790565b62af577f19810191908211610b1857565b91908203918211610b1857565b91908201809211610b1857565b600080516020612c7583398151915280548210156118c8576000527f7786cf01d28ed2cdb16fa4199a070b4bd3766c3a15acb7a51b2b400ec5ff05180190600090565b634e487b7160e01b600052603260045260246000fd5b81156118e8570490565b634e487b7160e01b600052601260045260246000fd5b81810292918115918404141715610b1857565b519081600f0b82036101c757565b908160809103126101c757606060405191611939836117cb565b61194281611911565b835261195060208201611911565b6020840152604081015160408401520151606082015290565b90600f0b90600f0b029081600f0b918203610b1857565b600f91820b910b03906f7fffffffffffffffffffffffffffffff1982126f7fffffffffffffffffffffffffffffff831317610b1857565b600080516020612cb5833981519152546040516381fc83bb60e01b81526001600160a01b03808416600483015260109290921c909116929190602081602481875afa90811561048557600091611aed575b509083611a1c6080938584611a4e98612b47565b604051630d36406960e21b81526001600160a01b03909316600484015260248301529093849190829081906044820190565b03915afa91821561048557611a9592611a8c91600091611abe575b50611a8381519360406020840151600f0b9301519061186b565b600f0b90611969565b90600f0b611980565b600081600f0b12600014611aa95750600090565b6fffffffffffffffffffffffffffffffff1690565b611ae0915060803d608011611ae6575b611ad881836117e7565b81019061191f565b38611a69565b503d611ace565b9190506020823d602011611b1b575b81611b09602093836117e7565b810103126101c7579051611a4e611a08565b3d9150611afc565b600080516020612cf58339815191526002815414611b415760029055565b604051633ee5aeb560e01b8152600490fd5b611b5c816127b9565b156104e157600080516020612cd583398151915291611b7a82611809565b91600080516020612cb58339815191529060ff825460081c16610500578454421015611be4575b60ff845492541680611bd0575b611bbf575b5062093a808091040290565b611bc99150612817565b4238611bb3565b50610e108201808311610b18574211611bae565b611bec612184565b611ba1565b81810392916000138015828513169184121617610b1857565b9190611c1581611809565b6040516381fc83bb60e01b81526001600160a01b0385811660048301526000969294879490939092916020908390602490829088165afa918215612179578592612141575b506005860154938215612135576001600160a01b038816865260038701602052604086205495866121235750611c9283868a84612b47565b945b851561211a575b604051630d36406960e21b81526001600160a01b038a16600482015260248101879052929190608084806044810103816001600160a01b0386165afa938415610485576000946120f9575b508388156120bc575b50828810156120ac578088106120a4575b5090604051611d0e816117cb565b60008152600060208201526000604082015260006060820152916000925b60328410611dcd575b50505050506000198301928311610b18577fd795915374024be1f03204e052bd584b33bb85c9128ede9c54adbe0bbdc220959360609380831015611dc45750600382965b60018060a01b038916600052600481016020528760406000205501602052604060002055604051948786526020860152604085015260018060a01b03169360018060a01b031692a390565b60039096611d79565b82891015600003611d3557604085989293949501518910158061209a575b15611ede57506000198114610b1857600101958051600f916020810151830b606060408301519201519260405194611e22866117cb565b0b845260208401526040830152606082015284871115611e6e576001604051611e4a816117cb565b60008152600060208201526000604082015260006060820152945b01929190611d2c565b604051630d36406960e21b81526001600160a01b038b16600482015260248101889052608081806044810103816001600160a01b0387165afa801561048557600191600091611ebf575b5094611e65565b611ed8915060803d608011611ae657611ad881836117e7565b38611eb8565b90969397611ef0604083015182611bf1565b82516020840151600f0b60008312600160ff1b821416610b18578281810205811483151715610b1857611f27920290600f0b611bf1565b60008112612092575b801580612089575b61208257600081138061205e575b611f62575b5062093a808101809111610b185760019098611e65565b9b61205182612057939e61203e60028f019183600052826020527fc57c1ea05273dbc3c7c6f859860da328de6a23eda45a6aacc624ff5d7345f911604080600020548151908782526020820152a183600052600080516020612c5583398151915292836020527ff32a82caab33468f1f5d3d3e7ea8cb064d42aaa5e52dd3d299395305b3da2384604080600020548151908882526020820152a17f017aaf9be05b6f77c8b797a0482901b22f8c83e2f6c308298bd1c484402e519360408051878152846020820152a184600052602052604060002054906118fe565b91600052602052604060002054906118de565b90611878565b9a38611f4b565b5081600052600080516020612c558339815191526020526040600020541515611f46565b5097611d35565b50868911611f38565b506000611f30565b5085821115611deb565b965038611d00565b5050505050505050505050600090565b6040919850015162093a809081810190818111610b185762093a7f01908111610b18578190048082810204821481151715610b1857029638611cef565b61211391945060803d608011611ae657611ad881836117e7565b9238611ce6565b60019550611c9b565b60409060048901602052205494611c94565b50505050509250505090565b9091506020813d602011612171575b8161215d602093836117e7565b8101031261216d57519038611c5a565b8480fd5b3d9150612150565b6040513d87823e3d90fd5b600080516020612cb583398151915254600090600080516020612cd5833981519152549162093a804204908162093a8081020462093a8014821517156127a557601083901c6001600160a01b03163b156127a25760405163c2c4c5c160e01b8152818160048183601089901c6001600160a01b03165af1801561250357612776575b50908184151580612768575b612757575b60141115612741575b600080516020612cd58339815191525462093a8081111561273a5762093a7f198101908111612726575b807f7696fbeb7b2058c668a217a0eec72abde89fab471f589cf41a33a6b2983cd601541461250e575b50815b601481106122b8575b50505050427f7696fbeb7b2058c668a217a0eec72abde89fab471f589cf41a33a6b2983cd60155600080516020612cd583398151915255565b62093a808202851160000361227f5760405163900cf0cf60e01b8152939592949360009060208160048160108c901c6001600160a01b03165afa9081156125035782916124cd575b5093815b60808310156124c057858110156123a257604051638ad4c44760e01b815281870160020160011c60048201819052919060808160248160108f901c6001600160a01b03165afa908115610485578991604091600091612383575b500151116123735750600190925b0191612304565b929550600190600019019561236c565b61239c915060803d608011611ae657611ad881836117e7565b3861235e565b91509694919593505b604051638ad4c44760e01b8152600481019190915260249060808082848160108b901c6001600160a01b03165afa8015610485577ff32a82caab33468f1f5d3d3e7ea8cb064d42aaa5e52dd3d299395305b3da2384926040926000926124a3575b505061243c60008383015180881161248f575b506124348351916020600f950151850b611969565b90830b611980565b900b84600052600080516020612c558339815191526020528082600020558151908582526020820152a162093a80820180921161247d575093600101612276565b634e487b7160e01b8452601160045283fd5b61249a915087611bf1565b600f0b3861241f565b6124b99250803d10611ae657611ad881836117e7565b388061240c565b91509694919593506123ab565b90506020813d6020116124fb575b816124e8602093836117e7565b810103126124f7575138612300565b5080fd5b3d91506124db565b6040513d84823e3d90fd5b60405163900cf0cf60e01b815291949092916000919060208160048160108a901c6001600160a01b03165afa90811561271b5783916126e5575b5092825b60808410156126d957848110156125ea57604051638ad4c44760e01b815281860160020160011c60048201819052919060808160248160108d901c6001600160a01b03165afa9081156104855788916040916000916125cb575b500151116125bb5750600190935b019261254c565b93945060019060001901946125b4565b6125e4915060803d608011611ae657611ad881836117e7565b386125a6565b925093909592505b604051638ad4c44760e01b81526004810192909252608082602481601089901c6001600160a01b03165afa908115610485576126766040927ff32a82caab33468f1f5d3d3e7ea8cb064d42aaa5e52dd3d299395305b3da2384946000916126ba575b50611a8c6000858301518086116126a6575b5060208351930151600f0b611969565b600f0b81600052600080516020612c5583398151915260205280836000205582519182526020820152a138612273565b6126b1915085611bf1565b600f0b38612666565b6126d3915060803d608011611ae657611ad881836117e7565b38612654565b925093909592506125f2565b90506020813d602011612713575b81612700602093836117e7565b8101031261270f575138612548565b8280fd5b3d91506126f3565b6040513d85823e3d90fd5b634e487b7160e01b83526011600452602483fd5b508161224a565b925061275162093a80840261185a565b92612220565b5062093a8081810285900304612217565b508462093a80830211612212565b67ffffffffffffffff811161278e5760405238612206565b634e487b7160e01b82526041600452602482fd5b80fd5b634e487b7160e01b81526011600452602490fd5b6001600160a01b039081168015610fbe57600080516020612c75833981519152549160005b8381106127ee5750505050600090565b82826127f983611885565b90549060031b1c161461280e576001016127de565b50505050600190565b9061282182611809565b604080516370a0823160e01b81523060048083019190915290946001600160a01b03169260209190602483888281895afa978815612b3c57600098612b0d575b5060019060018301986128758a548261186b565b9955825491612884834261186b565b9162093a8095601491601461289d8988048a420461186b565b1015612adc575b428755878604888102908082048a1490151715610b185797929093916000945b828610612906575b505050505050505050507f6df0a5bed078180e2881e76873c40450711146fa6156da26b23f6eb7d2de8735929394825191428352820152a2565b848a0194858b11612ac857854210600014612a0257505050505050509260027fc57c1ea05273dbc3c7c6f859860da328de6a23eda45a6aacc624ff5d7345f911938793867f6df0a5bed078180e2881e76873c40450711146fa6156da26b23f6eb7d2de87359a9b9c9715806129f9575b156129bf57505082600052818101875283600020612995878254611878565b90555b826000520185528160002054825191825285820152a19493923880808080808080806128cc565b6129d56129cf6129da934261186b565b896118fe565b6118de565b8360005282820188526129f285600020918254611878565b9055612998565b50814214612976565b919395998f908d9189889b7fc57c1ea05273dbc3c7c6f859860da328de6a23eda45a6aacc624ff5d7345f911959799821580612abf575b15612a8757505050816000528d60028d019052612a5b83600020918254611878565b90555b8060005260028b018d52816000205482519182528d820152a184879901939194929093946128c4565b92612a986129d592612a9e9561186b565b906118fe565b816000528d60028d019052612ab883600020918254611878565b9055612a5e565b50818114612a39565b50634e487b7160e01b600090815260118352fd5b9350935085612aea4261185a565b049386850294808604881490151715610b1857612b07854261186b565b936128a4565b9097508381813d8311612b35575b612b2581836117e7565b810103126101c757519638612861565b503d612b1b565b85513d6000823e3d90fd5b91906000936000945b60809081871015612c095782811015612c095760408051630d36406960e21b81526001600160a01b038616600482015282850160020160011c6024820181905293908181806044810103816001600160a01b038d165afa918215612bfe579088939291600092612be1575b5050015111612bd15750600190955b0194612b50565b9591506001906000190191612bca565b612bf79250803d10611ae657611ad881836117e7565b3880612bbb565b83513d6000823e3d90fd5b9550505050505090565b60ff7ff0c57e16840df040f15088dc2f81fe391c3923bec73e23a9662efc9c229c6a005460401c1615612c4257565b604051631afcd79f60e31b8152600490fdfe7696fbeb7b2058c668a217a0eec72abde89fab471f589cf41a33a6b2983cd6087696fbeb7b2058c668a217a0eec72abde89fab471f589cf41a33a6b2983cd6037696fbeb7b2058c668a217a0eec72abde89fab471f589cf41a33a6b2983cd6047696fbeb7b2058c668a217a0eec72abde89fab471f589cf41a33a6b2983cd6027696fbeb7b2058c668a217a0eec72abde89fab471f589cf41a33a6b2983cd6009b779b17422d0df92223018b32b4d1fa46e071723d6817e2486d003becc55f007696fbeb7b2058c668a217a0eec72abde89fab471f589cf41a33a6b2983cd606a2646970667358221220f535dc2f05af6056a2c7713602067d03998acd3832784c183259461ceab6b70864736f6c63430008180033",
        "nonce": "0x39",
        "chainId": "0xaa36a7"
      },
      "additionalContracts": [],
      "isFixedGasLimit": false
    },
    {
      "hash": "0x9d66adafd5d63100cc7869bdb7d2691779f93684e70eea38d10bc8e261c68856",
      "transactionType": "CREATE",
      "contractName": "Dictionary",
      "contractAddress": "0x70815ec0060F258B0Ab45BD5FF4803a60C8496Dd",
      "function": null,
      "arguments": [
        "0x5AC7577C0B0F8E7f55B9144fBcB64AB4778084d5"
      ],
      "transaction": {
        "from": "0x5AC7577C0B0F8E7f55B9144fBcB64AB4778084d5",
        "gas": "0xb7d47",
        "value": "0x0",
        "input": "0x6080346100bc57601f6109dc38819003918201601f19168301916001600160401b038311848410176100c1578084926020946040528339810103126100bc57516001600160a01b0390818116908190036100bc5780156100a357600380546001600160a01b03198116831790915560405192167f8be0079c531659141344cd1fd0a4f28419497f9722a3daafe3b4186f6b6457e0600080a361090490816100d88239f35b604051631e4fbdf760e01b815260006004820152602490fd5b600080fd5b634e487b7160e01b600052604160045260246000fdfe60806040818152600436101561001457600080fd5b60009160e0833560e01c91826301ffc9a714610524575081630815f6fd146104e45781635c60da1b146104bb578163651dc03d1461044c578163715018a6146103ec5781638da5cb5b146103c3578163a5954dd71461014f57508063dc9cc645146101195763f2fde38b1461008857600080fd5b34610115576020366003190112610115576100a1610581565b6100a96105f5565b6001600160a01b039081169182156100fe5750600354826bffffffffffffffffffffffff60a01b821617600355167f8be0079c531659141344cd1fd0a4f28419497f9722a3daafe3b4186f6b6457e08380a380f35b51631e4fbdf760e01b815260048101849052602490fd5b5080fd5b50346101155760203660031901126101155760209061013e610139610565565b610597565b90516001600160a01b039091168152f35b9050346103bf57826003193601126103bf578151908190600194855493848152602092838092019081968985527fb10e2d527612073b26eecdfd717e6a320cf44b4afac2b0732d9fcbe2b7fa0cf685925b8b8b8460078701106103495750505054918a8583831061032c575b83831061030f575b8383106102f2575b8383106102d5575b8383106102b8575b83831061029d575b838310610281575b50501061026c575b50849003601f01601f1916840195905067ffffffffffffffff8611848710176102585792869284878096528186019282875251809352850195925b82811061023b5785870386f35b83516001600160e01b03191687529581019592810192840161022e565b634e487b7160e01b82526041600452602482fd5b6001600160e01b0319168152839101386101f3565b84811b6001600160e01b03191686529490940193018a856101eb565b6001600160e01b0319858d1b16865290940193018a856101e3565b6001600160e01b0319606086901b16865290940193018a856101db565b6001600160e01b0319608086901b16865290940193018a856101d3565b6001600160e01b031960a086901b16865290940193018a856101cb565b6001600160e01b031960c086901b16865290940193018a856101c3565b6001600160e01b031960e086901b16865290940193018a856101bb565b95828498610100939498600896989798549283809363ffffffff60e01b809681941b16875260c0938383861b1682890152838360a0928282851b16818c01528a83836060608093818484871b169101521b16908c01521b16908801521b16908401521687820152019501910191908694936101a0565b8280fd5b50503461011557816003193601126101155760035490516001600160a01b039091168152602090f35b83346104495780600319360112610449576104056105f5565b600380546001600160a01b0319811690915581906001600160a01b03167f8be0079c531659141344cd1fd0a4f28419497f9722a3daafe3b4186f6b6457e08280a380f35b80fd5b5050346101155760203660031901126101155760207f159f10d3da077d18f228d52be447d552e7d1892d10f7af8f615658160e3747299161048b610581565b6104936105f5565b600280546001600160a01b0319166001600160a01b039290921691821790559051908152a180f35b50503461011557816003193601126101155760025490516001600160a01b039091168152602090f35b50503461011557366003190112610449576104fd610565565b6024356001600160a01b03811681036103bf576105219161051c6105f5565b610621565b80f35b849084346103bf5760203660031901126103bf57602092906001600160e01b031961054d610565565b1682528184529020546001600160a01b031615158152f35b600435906001600160e01b03198216820361057c57565b600080fd5b600435906001600160a01b038216820361057c57565b6001600160e01b0319166000818152602081905260408120546001600160a01b0391908216806105ee5750808060409252205416806105e95760405163404ceef760e11b815260048101839052602490fd5b905090565b9250505090565b6003546001600160a01b0316330361060957565b60405163118cdaa760e01b8152336004820152602490fd5b6001600160a01b0382169182156106ba5761063b826107e7565b3b156106a1577fda3c8142b3c1d27633026f55bfcb4eeb0b5b8db0daa0a3e10c2213a441722ad19160409163ffffffff60e01b169081600052600060205282600020816bffffffffffffffffffffffff60a01b82541617905582519182526020820152a1565b604051630c76093760e01b815260048101839052602490fd5b50905060005b600154811015610767576106d381610791565b9054600391821b1c60e01b6001600160e01b0319908116908416146106fb57506001016106c0565b9163ffffffff7fb0f2f3a9229724df0b95683e95488b72aed817bc1a5bd6fe1d2e7504e92871cb9361072e602094610791565b81939154921b1b191690555b6001600160e01b031916600081815280835260409081902080546001600160a01b031916905551908152a1565b5060207fb0f2f3a9229724df0b95683e95488b72aed817bc1a5bd6fe1d2e7504e92871cb9161073a565b906001548210156107d1576001600052601c8260031c7fb10e2d527612073b26eecdfd717e6a320cf44b4afac2b0732d9fcbe2b7fa0cf6019260021b1690565b634e487b7160e01b600052603260045260246000fd5b6107f081610880565b61087d5760015468010000000000000000811015610867577fbe533f538959a17d76f1b09e966e741ee3b1183099682f96216c93d21feaecba9161083c82600160209401600155610791565b81549060031b9063ffffffff8460e01c831b921b19161790556040519063ffffffff60e01b168152a1565b634e487b7160e01b600052604160045260246000fd5b50565b6000600191600154915b82811061089a5750505050600090565b806108a58592610791565b905463ffffffff60e01b908186169260031b1c60e01b16146108c7570161088a565b505050509056fea2646970667358221220d9caa235e334b996772f1f96149b393577f122bd7b9456319691e86310e05e6264736f6c634300081800330000000000000000000000005ac7577c0b0f8e7f55b9144fbcb64ab4778084d5",
        "nonce": "0x3a",
        "chainId": "0xaa36a7"
      },
      "additionalContracts": [],
      "isFixedGasLimit": false
    },
    {
      "hash": "0xaa32032bda6986659555baa5b74563a692521e89890fe994c813b0f69d5d52e4",
      "transactionType": "CALL",
      "contractName": "Dictionary",
      "contractAddress": "0x70815ec0060F258B0Ab45BD5FF4803a60C8496Dd",
      "function": "setImplementation(bytes4,address)",
      "arguments": [
        "0xc0c53b8b",
        "0x9C27451043fE41a701422f513a164C299F3C3085"
      ],
      "transaction": {
        "from": "0x5AC7577C0B0F8E7f55B9144fBcB64AB4778084d5",
        "to": "0x70815ec0060F258B0Ab45BD5FF4803a60C8496Dd",
        "gas": "0x20607",
        "value": "0x0",
        "input": "0x0815f6fdc0c53b8b000000000000000000000000000000000000000000000000000000000000000000000000000000009c27451043fe41a701422f513a164c299f3c3085",
        "nonce": "0x3b",
        "chainId": "0xaa36a7"
      },
      "additionalContracts": [],
      "isFixedGasLimit": false
    },
    {
      "hash": "0x8696b6bcca8336d45109ab8ce8971c46e6828c59246007b423b63e77808169b1",
      "transactionType": "CALL",
      "contractName": "Dictionary",
      "contractAddress": "0x70815ec0060F258B0Ab45BD5FF4803a60C8496Dd",
      "function": "setImplementation(bytes4,address)",
      "arguments": [
        "0x3902b9bc",
        "0x9C27451043fE41a701422f513a164C299F3C3085"
      ],
      "transaction": {
        "from": "0x5AC7577C0B0F8E7f55B9144fBcB64AB4778084d5",
        "to": "0x70815ec0060F258B0Ab45BD5FF4803a60C8496Dd",
        "gas": "0x14fac",
        "value": "0x0",
        "input": "0x0815f6fd3902b9bc000000000000000000000000000000000000000000000000000000000000000000000000000000009c27451043fe41a701422f513a164c299f3c3085",
        "nonce": "0x3c",
        "chainId": "0xaa36a7"
      },
      "additionalContracts": [],
      "isFixedGasLimit": false
    },
    {
      "hash": "0x9585a85efe75b4d1ac63c7993f8a83eae6dde3245117911a24e6d56da4330c6b",
      "transactionType": "CALL",
      "contractName": "Dictionary",
      "contractAddress": "0x70815ec0060F258B0Ab45BD5FF4803a60C8496Dd",
      "function": "setImplementation(bytes4,address)",
      "arguments": [
        "0xf3648241",
        "0x9C27451043fE41a701422f513a164C299F3C3085"
      ],
      "transaction": {
        "from": "0x5AC7577C0B0F8E7f55B9144fBcB64AB4778084d5",
        "to": "0x70815ec0060F258B0Ab45BD5FF4803a60C8496Dd",
        "gas": "0x151d7",
        "value": "0x0",
        "input": "0x0815f6fdf3648241000000000000000000000000000000000000000000000000000000000000000000000000000000009c27451043fe41a701422f513a164c299f3c3085",
        "nonce": "0x3d",
        "chainId": "0xaa36a7"
      },
      "additionalContracts": [],
      "isFixedGasLimit": false
    },
    {
      "hash": "0xfd9e6cc863ff6c4fde13059e80b9d81c84636f7d90f6a0ab55e39ae58f0378c9",
      "transactionType": "CALL",
      "contractName": "Dictionary",
      "contractAddress": "0x70815ec0060F258B0Ab45BD5FF4803a60C8496Dd",
      "function": "setImplementation(bytes4,address)",
      "arguments": [
        "0x326a9407",
        "0x9C27451043fE41a701422f513a164C299F3C3085"
      ],
      "transaction": {
        "from": "0x5AC7577C0B0F8E7f55B9144fBcB64AB4778084d5",
        "to": "0x70815ec0060F258B0Ab45BD5FF4803a60C8496Dd",
        "gas": "0x16803",
        "value": "0x0",
        "input": "0x0815f6fd326a9407000000000000000000000000000000000000000000000000000000000000000000000000000000009c27451043fe41a701422f513a164c299f3c3085",
        "nonce": "0x3e",
        "chainId": "0xaa36a7"
      },
      "additionalContracts": [],
      "isFixedGasLimit": false
    },
    {
      "hash": "0x1246678fa1381147f2e8da0ed153e779214910b1504a59dd18adc02a644d18af",
      "transactionType": "CALL",
      "contractName": "Dictionary",
      "contractAddress": "0x70815ec0060F258B0Ab45BD5FF4803a60C8496Dd",
      "function": "setImplementation(bytes4,address)",
      "arguments": [
        "0x1e83409a",
        "0x9C27451043fE41a701422f513a164C299F3C3085"
      ],
      "transaction": {
        "from": "0x5AC7577C0B0F8E7f55B9144fBcB64AB4778084d5",
        "to": "0x70815ec0060F258B0Ab45BD5FF4803a60C8496Dd",
        "gas": "0x1562d",
        "value": "0x0",
        "input": "0x0815f6fd1e83409a000000000000000000000000000000000000000000000000000000000000000000000000000000009c27451043fe41a701422f513a164c299f3c3085",
        "nonce": "0x3f",
        "chainId": "0xaa36a7"
      },
      "additionalContracts": [],
      "isFixedGasLimit": false
    },
    {
      "hash": "0xfb6a848eea99cb1f2c82036c002f8f3204018919957cee2bba3f03f92e512f5e",
      "transactionType": "CALL",
      "contractName": "Dictionary",
      "contractAddress": "0x70815ec0060F258B0Ab45BD5FF4803a60C8496Dd",
      "function": "setImplementation(bytes4,address)",
      "arguments": [
        "0xb4ba9e11",
        "0x9C27451043fE41a701422f513a164C299F3C3085"
      ],
      "transaction": {
        "from": "0x5AC7577C0B0F8E7f55B9144fBcB64AB4778084d5",
        "to": "0x70815ec0060F258B0Ab45BD5FF4803a60C8496Dd",
        "gas": "0x15859",
        "value": "0x0",
        "input": "0x0815f6fdb4ba9e11000000000000000000000000000000000000000000000000000000000000000000000000000000009c27451043fe41a701422f513a164c299f3c3085",
        "nonce": "0x40",
        "chainId": "0xaa36a7"
      },
      "additionalContracts": [],
      "isFixedGasLimit": false
    },
    {
      "hash": "0x995b271e89978dc5494533e2d19fa0e34c57cf4acb09f2455b06cfe8018a0392",
      "transactionType": "CALL",
      "contractName": "Dictionary",
      "contractAddress": "0x70815ec0060F258B0Ab45BD5FF4803a60C8496Dd",
      "function": "setImplementation(bytes4,address)",
      "arguments": [
        "0x906b1dce",
        "0x9C27451043fE41a701422f513a164C299F3C3085"
      ],
      "transaction": {
        "from": "0x5AC7577C0B0F8E7f55B9144fBcB64AB4778084d5",
        "to": "0x70815ec0060F258B0Ab45BD5FF4803a60C8496Dd",
        "gas": "0x15a85",
        "value": "0x0",
        "input": "0x0815f6fd906b1dce000000000000000000000000000000000000000000000000000000000000000000000000000000009c27451043fe41a701422f513a164c299f3c3085",
        "nonce": "0x41",
        "chainId": "0xaa36a7"
      },
      "additionalContracts": [],
      "isFixedGasLimit": false
    },
    {
      "hash": "0xce805988a44e073d854daae6643896d299f1cab1a9217a19a1784e4beb643c42",
      "transactionType": "CALL",
      "contractName": "Dictionary",
      "contractAddress": "0x70815ec0060F258B0Ab45BD5FF4803a60C8496Dd",
      "function": "setImplementation(bytes4,address)",
      "arguments": [
        "0xc23c2262",
        "0x9C27451043fE41a701422f513a164C299F3C3085"
      ],
      "transaction": {
        "from": "0x5AC7577C0B0F8E7f55B9144fBcB64AB4778084d5",
        "to": "0x70815ec0060F258B0Ab45BD5FF4803a60C8496Dd",
        "gas": "0x17133",
        "value": "0x0",
        "input": "0x0815f6fdc23c2262000000000000000000000000000000000000000000000000000000000000000000000000000000009c27451043fe41a701422f513a164c299f3c3085",
        "nonce": "0x42",
        "chainId": "0xaa36a7"
      },
      "additionalContracts": [],
      "isFixedGasLimit": false
    },
    {
      "hash": "0xfde30662ab6f894395d3c7203fb67e8899df4ee1573afad691f183f7588ee509",
      "transactionType": "CALL",
      "contractName": "Dictionary",
      "contractAddress": "0x70815ec0060F258B0Ab45BD5FF4803a60C8496Dd",
      "function": "setImplementation(bytes4,address)",
      "arguments": [
        "0x89afcb44",
        "0x9C27451043fE41a701422f513a164C299F3C3085"
      ],
      "transaction": {
        "from": "0x5AC7577C0B0F8E7f55B9144fBcB64AB4778084d5",
        "to": "0x70815ec0060F258B0Ab45BD5FF4803a60C8496Dd",
        "gas": "0x1c5e9",
        "value": "0x0",
        "input": "0x0815f6fd89afcb44000000000000000000000000000000000000000000000000000000000000000000000000000000009c27451043fe41a701422f513a164c299f3c3085",
        "nonce": "0x43",
        "chainId": "0xaa36a7"
      },
      "additionalContracts": [],
      "isFixedGasLimit": false
    },
    {
      "hash": "0x5325b6c7cbb60845bf2fd77b381d13b1707b059444384125409d28839d4e417b",
      "transactionType": "CALL",
      "contractName": "Dictionary",
      "contractAddress": "0x70815ec0060F258B0Ab45BD5FF4803a60C8496Dd",
      "function": "setImplementation(bytes4,address)",
      "arguments": [
        "0xaf81c5b9",
        "0x9C27451043fE41a701422f513a164C299F3C3085"
      ],
      "transaction": {
        "from": "0x5AC7577C0B0F8E7f55B9144fBcB64AB4778084d5",
        "to": "0x70815ec0060F258B0Ab45BD5FF4803a60C8496Dd",
        "gas": "0x16bd1",
        "value": "0x0",
        "input": "0x0815f6fdaf81c5b9000000000000000000000000000000000000000000000000000000000000000000000000000000009c27451043fe41a701422f513a164c299f3c3085",
        "nonce": "0x44",
        "chainId": "0xaa36a7"
      },
      "additionalContracts": [],
      "isFixedGasLimit": false
    },
    {
      "hash": "0xe4fa82385ae3488929beadd7aeae4e4e5172827cc238598aca34a17fdd96f738",
      "transactionType": "CALL",
      "contractName": "Dictionary",
      "contractAddress": "0x70815ec0060F258B0Ab45BD5FF4803a60C8496Dd",
      "function": "setImplementation(bytes4,address)",
      "arguments": [
        "0x5fa7b584",
        "0x9C27451043fE41a701422f513a164C299F3C3085"
      ],
      "transaction": {
        "from": "0x5AC7577C0B0F8E7f55B9144fBcB64AB4778084d5",
        "to": "0x70815ec0060F258B0Ab45BD5FF4803a60C8496Dd",
        "gas": "0x16dfc",
        "value": "0x0",
        "input": "0x0815f6fd5fa7b584000000000000000000000000000000000000000000000000000000000000000000000000000000009c27451043fe41a701422f513a164c299f3c3085",
        "nonce": "0x45",
        "chainId": "0xaa36a7"
      },
      "additionalContracts": [],
      "isFixedGasLimit": false
    },
    {
      "hash": "0xef7ae949c561c996f2af6c92bf75087031a17ef34f8f293b0750ef44f21e7ccd",
      "transactionType": "CALL",
      "contractName": "Dictionary",
      "contractAddress": "0x70815ec0060F258B0Ab45BD5FF4803a60C8496Dd",
      "function": "setImplementation(bytes4,address)",
      "arguments": [
        "0xb0f3b734",
        "0x9C27451043fE41a701422f513a164C299F3C3085"
      ],
      "transaction": {
        "from": "0x5AC7577C0B0F8E7f55B9144fBcB64AB4778084d5",
        "to": "0x70815ec0060F258B0Ab45BD5FF4803a60C8496Dd",
        "gas": "0x185cf",
        "value": "0x0",
        "input": "0x0815f6fdb0f3b734000000000000000000000000000000000000000000000000000000000000000000000000000000009c27451043fe41a701422f513a164c299f3c3085",
        "nonce": "0x46",
        "chainId": "0xaa36a7"
      },
      "additionalContracts": [],
      "isFixedGasLimit": false
    },
    {
      "hash": "0x1c1acc7580227ac006721f39800870d16b3a41145b41fdc2a2bd0ecf45f60a93",
      "transactionType": "CALL",
      "contractName": "Dictionary",
      "contractAddress": "0x70815ec0060F258B0Ab45BD5FF4803a60C8496Dd",
      "function": "setImplementation(bytes4,address)",
      "arguments": [
        "0x4e67428d",
        "0x9C27451043fE41a701422f513a164C299F3C3085"
      ],
      "transaction": {
        "from": "0x5AC7577C0B0F8E7f55B9144fBcB64AB4778084d5",
        "to": "0x70815ec0060F258B0Ab45BD5FF4803a60C8496Dd",
        "gas": "0x17252",
        "value": "0x0",
        "input": "0x0815f6fd4e67428d000000000000000000000000000000000000000000000000000000000000000000000000000000009c27451043fe41a701422f513a164c299f3c3085",
        "nonce": "0x47",
        "chainId": "0xaa36a7"
      },
      "additionalContracts": [],
      "isFixedGasLimit": false
    },
    {
      "hash": "0x4cf10f29513ebddc2ef94e64da1ed2c38f7d26aa33b84cb03182a15f66aeb533",
      "transactionType": "CALL",
      "contractName": "Dictionary",
      "contractAddress": "0x70815ec0060F258B0Ab45BD5FF4803a60C8496Dd",
      "function": "setImplementation(bytes4,address)",
      "arguments": [
        "0x8721b785",
        "0x9C27451043fE41a701422f513a164C299F3C3085"
      ],
      "transaction": {
        "from": "0x5AC7577C0B0F8E7f55B9144fBcB64AB4778084d5",
        "to": "0x70815ec0060F258B0Ab45BD5FF4803a60C8496Dd",
        "gas": "0x1747d",
        "value": "0x0",
        "input": "0x0815f6fd8721b785000000000000000000000000000000000000000000000000000000000000000000000000000000009c27451043fe41a701422f513a164c299f3c3085",
        "nonce": "0x48",
        "chainId": "0xaa36a7"
      },
      "additionalContracts": [],
      "isFixedGasLimit": false
    },
    {
      "hash": "0xc9893bbde1df33d89be1fbe65662607759d0ec0b07bfb7b3003905ea394c639e",
      "transactionType": "CALL",
      "contractName": "Dictionary",
      "contractAddress": "0x70815ec0060F258B0Ab45BD5FF4803a60C8496Dd",
      "function": "setImplementation(bytes4,address)",
      "arguments": [
        "0xb603cd80",
        "0x9C27451043fE41a701422f513a164C299F3C3085"
      ],
      "transaction": {
        "from": "0x5AC7577C0B0F8E7f55B9144fBcB64AB4778084d5",
        "to": "0x70815ec0060F258B0Ab45BD5FF4803a60C8496Dd",
        "gas": "0x176aa",
        "value": "0x0",
        "input": "0x0815f6fdb603cd80000000000000000000000000000000000000000000000000000000000000000000000000000000009c27451043fe41a701422f513a164c299f3c3085",
        "nonce": "0x49",
        "chainId": "0xaa36a7"
      },
      "additionalContracts": [],
      "isFixedGasLimit": false
    },
    {
      "hash": null,
      "transactionType": "CALL",
      "contractName": "Dictionary",
      "contractAddress": "0x70815ec0060F258B0Ab45BD5FF4803a60C8496Dd",
      "function": "setImplementation(bytes4,address)",
      "arguments": [
        "0x68662ea0",
        "0x9C27451043fE41a701422f513a164C299F3C3085"
      ],
      "transaction": {
        "from": "0x5AC7577C0B0F8E7f55B9144fBcB64AB4778084d5",
        "to": "0x70815ec0060F258B0Ab45BD5FF4803a60C8496Dd",
        "gas": "0x18eff",
        "value": "0x0",
        "input": "0x0815f6fd68662ea0000000000000000000000000000000000000000000000000000000000000000000000000000000009c27451043fe41a701422f513a164c299f3c3085",
        "nonce": "0x4a",
        "chainId": "0xaa36a7"
      },
      "additionalContracts": [],
      "isFixedGasLimit": false
    },
    {
      "hash": null,
      "transactionType": "CALL",
      "contractName": "Dictionary",
      "contractAddress": "0x70815ec0060F258B0Ab45BD5FF4803a60C8496Dd",
      "function": "setImplementation(bytes4,address)",
      "arguments": [
        "0xed3bc8b9",
        "0x9C27451043fE41a701422f513a164C299F3C3085"
      ],
      "transaction": {
        "from": "0x5AC7577C0B0F8E7f55B9144fBcB64AB4778084d5",
        "to": "0x70815ec0060F258B0Ab45BD5FF4803a60C8496Dd",
        "gas": "0x1e20e",
        "value": "0x0",
        "input": "0x0815f6fded3bc8b9000000000000000000000000000000000000000000000000000000000000000000000000000000009c27451043fe41a701422f513a164c299f3c3085",
        "nonce": "0x4b",
        "chainId": "0xaa36a7"
      },
      "additionalContracts": [],
      "isFixedGasLimit": false
    },
    {
      "hash": null,
      "transactionType": "CALL",
      "contractName": "Dictionary",
      "contractAddress": "0x70815ec0060F258B0Ab45BD5FF4803a60C8496Dd",
      "function": "setImplementation(bytes4,address)",
      "arguments": [
        "0x6e1dc66e",
        "0x9C27451043fE41a701422f513a164C299F3C3085"
      ],
      "transaction": {
        "from": "0x5AC7577C0B0F8E7f55B9144fBcB64AB4778084d5",
        "to": "0x70815ec0060F258B0Ab45BD5FF4803a60C8496Dd",
        "gas": "0x187f5",
        "value": "0x0",
        "input": "0x0815f6fd6e1dc66e000000000000000000000000000000000000000000000000000000000000000000000000000000009c27451043fe41a701422f513a164c299f3c3085",
        "nonce": "0x4c",
        "chainId": "0xaa36a7"
      },
      "additionalContracts": [],
      "isFixedGasLimit": false
    },
    {
      "hash": null,
      "transactionType": "CALL",
      "contractName": "Dictionary",
      "contractAddress": "0x70815ec0060F258B0Ab45BD5FF4803a60C8496Dd",
      "function": "setImplementation(bytes4,address)",
      "arguments": [
        "0x8736659b",
        "0x9C27451043fE41a701422f513a164C299F3C3085"
      ],
      "transaction": {
        "from": "0x5AC7577C0B0F8E7f55B9144fBcB64AB4778084d5",
        "to": "0x70815ec0060F258B0Ab45BD5FF4803a60C8496Dd",
        "gas": "0x18a20",
        "value": "0x0",
        "input": "0x0815f6fd8736659b000000000000000000000000000000000000000000000000000000000000000000000000000000009c27451043fe41a701422f513a164c299f3c3085",
        "nonce": "0x4d",
        "chainId": "0xaa36a7"
      },
      "additionalContracts": [],
      "isFixedGasLimit": false
    },
    {
      "hash": null,
      "transactionType": "CALL",
      "contractName": "Dictionary",
      "contractAddress": "0x70815ec0060F258B0Ab45BD5FF4803a60C8496Dd",
      "function": "setImplementation(bytes4,address)",
      "arguments": [
        "0xe855dd07",
        "0x9C27451043fE41a701422f513a164C299F3C3085"
      ],
      "transaction": {
        "from": "0x5AC7577C0B0F8E7f55B9144fBcB64AB4778084d5",
        "to": "0x70815ec0060F258B0Ab45BD5FF4803a60C8496Dd",
        "gas": "0x1a39c",
        "value": "0x0",
        "input": "0x0815f6fde855dd07000000000000000000000000000000000000000000000000000000000000000000000000000000009c27451043fe41a701422f513a164c299f3c3085",
        "nonce": "0x4e",
        "chainId": "0xaa36a7"
      },
      "additionalContracts": [],
      "isFixedGasLimit": false
    },
    {
      "hash": null,
      "transactionType": "CALL",
      "contractName": "Dictionary",
      "contractAddress": "0x70815ec0060F258B0Ab45BD5FF4803a60C8496Dd",
      "function": "setImplementation(bytes4,address)",
      "arguments": [
        "0x7d933227",
        "0x9C27451043fE41a701422f513a164C299F3C3085"
      ],
      "transaction": {
        "from": "0x5AC7577C0B0F8E7f55B9144fBcB64AB4778084d5",
        "to": "0x70815ec0060F258B0Ab45BD5FF4803a60C8496Dd",
        "gas": "0x18e77",
        "value": "0x0",
        "input": "0x0815f6fd7d933227000000000000000000000000000000000000000000000000000000000000000000000000000000009c27451043fe41a701422f513a164c299f3c3085",
        "nonce": "0x4f",
        "chainId": "0xaa36a7"
      },
      "additionalContracts": [],
      "isFixedGasLimit": false
    },
    {
      "hash": null,
      "transactionType": "CALL",
      "contractName": "Dictionary",
      "contractAddress": "0x70815ec0060F258B0Ab45BD5FF4803a60C8496Dd",
      "function": "setImplementation(bytes4,address)",
      "arguments": [
        "0xe1d2bf69",
        "0x9C27451043fE41a701422f513a164C299F3C3085"
      ],
      "transaction": {
        "from": "0x5AC7577C0B0F8E7f55B9144fBcB64AB4778084d5",
        "to": "0x70815ec0060F258B0Ab45BD5FF4803a60C8496Dd",
        "gas": "0x190a2",
        "value": "0x0",
        "input": "0x0815f6fde1d2bf69000000000000000000000000000000000000000000000000000000000000000000000000000000009c27451043fe41a701422f513a164c299f3c3085",
        "nonce": "0x50",
        "chainId": "0xaa36a7"
      },
      "additionalContracts": [],
      "isFixedGasLimit": false
    },
    {
      "hash": null,
      "transactionType": "CALL",
      "contractName": "Dictionary",
      "contractAddress": "0x70815ec0060F258B0Ab45BD5FF4803a60C8496Dd",
      "function": "setImplementation(bytes4,address)",
      "arguments": [
        "0x0cc672e4",
        "0x9C27451043fE41a701422f513a164C299F3C3085"
      ],
      "transaction": {
        "from": "0x5AC7577C0B0F8E7f55B9144fBcB64AB4778084d5",
        "to": "0x70815ec0060F258B0Ab45BD5FF4803a60C8496Dd",
        "gas": "0x192ce",
        "value": "0x0",
        "input": "0x0815f6fd0cc672e4000000000000000000000000000000000000000000000000000000000000000000000000000000009c27451043fe41a701422f513a164c299f3c3085",
        "nonce": "0x51",
        "chainId": "0xaa36a7"
      },
      "additionalContracts": [],
      "isFixedGasLimit": false
    },
    {
      "hash": null,
      "transactionType": "CALL",
      "contractName": "Dictionary",
      "contractAddress": "0x70815ec0060F258B0Ab45BD5FF4803a60C8496Dd",
      "function": "setImplementation(bytes4,address)",
      "arguments": [
        "0x8fe8a101",
        "0x9C27451043fE41a701422f513a164C299F3C3085"
      ],
      "transaction": {
        "from": "0x5AC7577C0B0F8E7f55B9144fBcB64AB4778084d5",
        "to": "0x70815ec0060F258B0Ab45BD5FF4803a60C8496Dd",
        "gas": "0x1accc",
        "value": "0x0",
        "input": "0x0815f6fd8fe8a101000000000000000000000000000000000000000000000000000000000000000000000000000000009c27451043fe41a701422f513a164c299f3c3085",
        "nonce": "0x52",
        "chainId": "0xaa36a7"
      },
      "additionalContracts": [],
      "isFixedGasLimit": false
    },
    {
      "hash": null,
      "transactionType": "CALL",
      "contractName": "Dictionary",
      "contractAddress": "0x70815ec0060F258B0Ab45BD5FF4803a60C8496Dd",
      "function": "setImplementation(bytes4,address)",
      "arguments": [
        "0x4f2bfe5b",
        "0x9C27451043fE41a701422f513a164C299F3C3085"
      ],
      "transaction": {
        "from": "0x5AC7577C0B0F8E7f55B9144fBcB64AB4778084d5",
        "to": "0x70815ec0060F258B0Ab45BD5FF4803a60C8496Dd",
        "gas": "0x1fe33",
        "value": "0x0",
        "input": "0x0815f6fd4f2bfe5b000000000000000000000000000000000000000000000000000000000000000000000000000000009c27451043fe41a701422f513a164c299f3c3085",
        "nonce": "0x53",
        "chainId": "0xaa36a7"
      },
      "additionalContracts": [],
      "isFixedGasLimit": false
    },
    {
      "hash": null,
      "transactionType": "CALL",
      "contractName": "Dictionary",
      "contractAddress": "0x70815ec0060F258B0Ab45BD5FF4803a60C8496Dd",
      "function": "setImplementation(bytes4,address)",
      "arguments": [
        "0x9d63848a",
        "0x9C27451043fE41a701422f513a164C299F3C3085"
      ],
      "transaction": {
        "from": "0x5AC7577C0B0F8E7f55B9144fBcB64AB4778084d5",
        "to": "0x70815ec0060F258B0Ab45BD5FF4803a60C8496Dd",
        "gas": "0x1a41a",
        "value": "0x0",
        "input": "0x0815f6fd9d63848a000000000000000000000000000000000000000000000000000000000000000000000000000000009c27451043fe41a701422f513a164c299f3c3085",
        "nonce": "0x54",
        "chainId": "0xaa36a7"
      },
      "additionalContracts": [],
      "isFixedGasLimit": false
    },
    {
      "hash": null,
      "transactionType": "CALL",
      "contractName": "Dictionary",
      "contractAddress": "0x70815ec0060F258B0Ab45BD5FF4803a60C8496Dd",
      "function": "setImplementation(bytes4,address)",
      "arguments": [
        "0xf851a440",
        "0x9C27451043fE41a701422f513a164C299F3C3085"
      ],
      "transaction": {
        "from": "0x5AC7577C0B0F8E7f55B9144fBcB64AB4778084d5",
        "to": "0x70815ec0060F258B0Ab45BD5FF4803a60C8496Dd",
        "gas": "0x1a645",
        "value": "0x0",
        "input": "0x0815f6fdf851a440000000000000000000000000000000000000000000000000000000000000000000000000000000009c27451043fe41a701422f513a164c299f3c3085",
        "nonce": "0x55",
        "chainId": "0xaa36a7"
      },
      "additionalContracts": [],
      "isFixedGasLimit": false
    },
    {
      "hash": null,
      "transactionType": "CALL",
      "contractName": "Dictionary",
      "contractAddress": "0x70815ec0060F258B0Ab45BD5FF4803a60C8496Dd",
      "function": "setImplementation(bytes4,address)",
      "arguments": [
        "0x4cb654af",
        "0x9C27451043fE41a701422f513a164C299F3C3085"
      ],
      "transaction": {
        "from": "0x5AC7577C0B0F8E7f55B9144fBcB64AB4778084d5",
        "to": "0x70815ec0060F258B0Ab45BD5FF4803a60C8496Dd",
        "gas": "0x1c168",
        "value": "0x0",
        "input": "0x0815f6fd4cb654af000000000000000000000000000000000000000000000000000000000000000000000000000000009c27451043fe41a701422f513a164c299f3c3085",
        "nonce": "0x56",
        "chainId": "0xaa36a7"
      },
      "additionalContracts": [],
      "isFixedGasLimit": false
    },
    {
      "hash": null,
      "transactionType": "CALL",
      "contractName": "Dictionary",
      "contractAddress": "0x70815ec0060F258B0Ab45BD5FF4803a60C8496Dd",
      "function": "setImplementation(bytes4,address)",
      "arguments": [
        "0x5a4b8c1d",
        "0x9C27451043fE41a701422f513a164C299F3C3085"
      ],
      "transaction": {
        "from": "0x5AC7577C0B0F8E7f55B9144fBcB64AB4778084d5",
        "to": "0x70815ec0060F258B0Ab45BD5FF4803a60C8496Dd",
        "gas": "0x1aa9b",
        "value": "0x0",
        "input": "0x0815f6fd5a4b8c1d000000000000000000000000000000000000000000000000000000000000000000000000000000009c27451043fe41a701422f513a164c299f3c3085",
        "nonce": "0x57",
        "chainId": "0xaa36a7"
      },
      "additionalContracts": [],
      "isFixedGasLimit": false
    },
    {
      "hash": null,
      "transactionType": "CALL",
      "contractName": "Dictionary",
      "contractAddress": "0x70815ec0060F258B0Ab45BD5FF4803a60C8496Dd",
      "function": "setImplementation(bytes4,address)",
      "arguments": [
        "0x38b74b47",
        "0x9C27451043fE41a701422f513a164C299F3C3085"
      ],
      "transaction": {
        "from": "0x5AC7577C0B0F8E7f55B9144fBcB64AB4778084d5",
        "to": "0x70815ec0060F258B0Ab45BD5FF4803a60C8496Dd",
        "gas": "0x1acc6",
        "value": "0x0",
        "input": "0x0815f6fd38b74b47000000000000000000000000000000000000000000000000000000000000000000000000000000009c27451043fe41a701422f513a164c299f3c3085",
        "nonce": "0x58",
        "chainId": "0xaa36a7"
      },
      "additionalContracts": [],
      "isFixedGasLimit": false
    },
    {
      "hash": null,
      "transactionType": "CALL",
      "contractName": "Dictionary",
      "contractAddress": "0x70815ec0060F258B0Ab45BD5FF4803a60C8496Dd",
      "function": "setImplementation(bytes4,address)",
      "arguments": [
        "0x071cb5ad",
        "0x9C27451043fE41a701422f513a164C299F3C3085"
      ],
      "transaction": {
        "from": "0x5AC7577C0B0F8E7f55B9144fBcB64AB4778084d5",
        "to": "0x70815ec0060F258B0Ab45BD5FF4803a60C8496Dd",
        "gas": "0x1aef3",
        "value": "0x0",
        "input": "0x0815f6fd071cb5ad000000000000000000000000000000000000000000000000000000000000000000000000000000009c27451043fe41a701422f513a164c299f3c3085",
        "nonce": "0x59",
        "chainId": "0xaa36a7"
      },
      "additionalContracts": [],
      "isFixedGasLimit": false
    },
    {
      "hash": null,
      "transactionType": "CALL",
      "contractName": "Dictionary",
      "contractAddress": "0x70815ec0060F258B0Ab45BD5FF4803a60C8496Dd",
      "function": "setImplementation(bytes4,address)",
      "arguments": [
        "0x00d440c1",
        "0x9C27451043fE41a701422f513a164C299F3C3085"
      ],
      "transaction": {
        "from": "0x5AC7577C0B0F8E7f55B9144fBcB64AB4778084d5",
        "to": "0x70815ec0060F258B0Ab45BD5FF4803a60C8496Dd",
        "gas": "0x1b10d",
        "value": "0x0",
        "input": "0x0815f6fd00d440c1000000000000000000000000000000000000000000000000000000000000000000000000000000009c27451043fe41a701422f513a164c299f3c3085",
        "nonce": "0x5a",
        "chainId": "0xaa36a7"
      },
      "additionalContracts": [],
      "isFixedGasLimit": false
    },
    {
      "hash": null,
      "transactionType": "CALL",
      "contractName": "Dictionary",
      "contractAddress": "0x70815ec0060F258B0Ab45BD5FF4803a60C8496Dd",
      "function": "setImplementation(bytes4,address)",
      "arguments": [
        "0x0f6592ef",
        "0x9C27451043fE41a701422f513a164C299F3C3085"
      ],
      "transaction": {
        "from": "0x5AC7577C0B0F8E7f55B9144fBcB64AB4778084d5",
        "to": "0x70815ec0060F258B0Ab45BD5FF4803a60C8496Dd",
        "gas": "0x21a57",
        "value": "0x0",
        "input": "0x0815f6fd0f6592ef000000000000000000000000000000000000000000000000000000000000000000000000000000009c27451043fe41a701422f513a164c299f3c3085",
        "nonce": "0x5b",
        "chainId": "0xaa36a7"
      },
      "additionalContracts": [],
      "isFixedGasLimit": false
    },
    {
      "hash": null,
      "transactionType": "CREATE",
      "contractName": "MultiTokenFeeDistributorFacade",
      "contractAddress": "0x7C842a8aa3E5cF06a9A233b8861bC4251513dA44",
      "function": null,
      "arguments": null,
      "transaction": {
        "from": "0x5AC7577C0B0F8E7f55B9144fBcB64AB4778084d5",
        "gas": "0x64f9b",
        "value": "0x0",
        "input": "0x60808060405234610016576104c9908161001c8239f35b600080fdfe6040608081526004908136101561001557600080fd5b600090813560e01c928362d440c114610194578363071cb5ad146102405783630cc672e41461018f5783630f6592ef1461039d5783631e83409a14610199578363326a94071461023b57836338b74b47146102405783633902b9bc146102455783634cb654af1461018f5783634e67428d1461023b5783634f2bfe5b1461018f5783635a4b8c1d1461018f5783635fa7b5841461024557836368662ea0146101995783636e1dc66e146101995783637d933227146101995783638721b7851461023b5783638736659b1461018f57836389afcb44146101995783638fe8a1011461018f578363906b1dce146102c55783639d63848a14610266578363af81c5b91461024a578363b0f3b73414610245578363b4ba9e1114610240578363b603cd801461023b578363c0c53b8b146101ff578363c23c22621461019e575050508063e1d2bf6914610199578063e855dd071461018f578063ed3bc8b914610199578063f3648241146101945763f851a4401461018f57600080fd5b610430565b6103e9565b61044c565b346101fb5760203660031901126101fb57803567ffffffffffffffff918282116101f757366023830112156101f7578101359182116101f357602490369260051b0101116101ef5751908152602090f35b5080fd5b8380fd5b8480fd5b8280fd5b8234610238576060366003190112610238576102196103d3565b506102226103b8565b506044356001600160a01b038116036102385780f35b80fd5b610465565b61040e565b610478565b50346101ef57366003190112610238576102626103d3565b5080f35b50903461023857806003193601126102385781519182916020916020840190602085526060518092528401926080925b8281106102a557505050500390f35b83516001600160a01b031685528695509381019392810192600101610296565b9250346101ef57806003193601126101ef57823567ffffffffffffffff8082116101f357366023830112156101f3578185013581811161038a578060051b91845196601f19603f850116880191888310908311176103775750845285526024602080960191830101913683116101f757602401905b828210610354576020858561034d6103b8565b5051908152f35b81356001600160a01b038116810361037357815290850190850161033a565b8580fd5b634e487b7160e01b875260419052602486fd5b634e487b7160e01b855260418652602485fd5b50346101ef5760203660031901126101ef5751908152602090f35b602435906001600160a01b03821682036103ce57565b600080fd5b600435906001600160a01b03821682036103ce57565b346103ce5760403660031901126103ce576104026103d3565b50602060405160008152f35b346103ce5760403660031901126103ce576104276103d3565b506104026103b8565b346103ce5760003660031901126103ce57602060405160008152f35b346103ce5760203660031901126103ce576104026103d3565b346103ce5760003660031901126103ce57005b346103ce5760203660031901126103ce576104916103d3565b00fea2646970667358221220783021e52b1275b44b2057de4aaa45eaa36ac1faac731c9aa7fe647a1c54ff6164736f6c63430008180033",
        "nonce": "0x5c",
        "chainId": "0xaa36a7"
      },
      "additionalContracts": [],
      "isFixedGasLimit": false
    },
    {
      "hash": null,
      "transactionType": "CALL",
      "contractName": "Dictionary",
      "contractAddress": "0x70815ec0060F258B0Ab45BD5FF4803a60C8496Dd",
      "function": "upgradeFacade(address)",
      "arguments": [
        "0x7C842a8aa3E5cF06a9A233b8861bC4251513dA44"
      ],
      "transaction": {
        "from": "0x5AC7577C0B0F8E7f55B9144fBcB64AB4778084d5",
        "to": "0x70815ec0060F258B0Ab45BD5FF4803a60C8496Dd",
        "gas": "0xfe0c",
        "value": "0x0",
        "input": "0x651dc03d0000000000000000000000007c842a8aa3e5cf06a9a233b8861bc4251513da44",
        "nonce": "0x5d",
        "chainId": "0xaa36a7"
      },
      "additionalContracts": [],
      "isFixedGasLimit": false
    },
    {
      "hash": null,
      "transactionType": "CREATE",
      "contractName": null,
      "contractAddress": "0xC687D6f61DA6484dea22fD5142AC523Bf3EEaEd1",
      "function": null,
      "arguments": null,
      "transaction": {
        "from": "0x5AC7577C0B0F8E7f55B9144fBcB64AB4778084d5",
        "gas": "0x6231b",
        "value": "0x0",
        "input": "0x60806040908082526104a68038038091610019828561028b565b833981019082818303126101fe57610030816102c4565b60208281015190926001600160401b0382116101fe57019083601f830112156101fe57815161005e816102d8565b9261006b8751948561028b565b818452848401958583830101116101fe57849060005b83811061027757505060009184010152803b156102445760018060a01b03169160018060a01b0319937f267691be3525af8a813d30db0c9e2bad08f63baecf6dceb85e2cf3676cff56f484868254161790557fa657f2ad315cf3bb35cf1964158da75c3f334481df05a4a1644b2376b17a59b2828751868152a182511561022a57825190805163ffffffff60e01b908181169360048110610215575b5050875163dc9cc64560e01b8152921660048301528282602481885afa91821561020a576000926101c4575b5060008091610184955190845af4903d156101bb573d610168816102d8565b906101758951928361028b565b8152600081943d92013e6102f3565b505b7fa3f0ad74e5423aebfd80d3ef4346578335a9a72aeaee59ff6cb3582b35133d50918254161790555161014f90816103578239f35b606092506102f3565b9391508284813d8311610203575b6101dc818361028b565b810103126101fe57600080916101f4610184966102c4565b9395509150610149565b600080fd5b503d6101d2565b87513d6000823e3d90fd5b60040360031b82901b1681169250388061011d565b505050341561018657825163b398979f60e01b8152600490fd5b845162461bcd60e51b815260048101849052600c60248201526b1393d397d0d3d395149050d560a21b6044820152606490fd5b818101830151868201840152869201610081565b601f909101601f19168101906001600160401b038211908210176102ae57604052565b634e487b7160e01b600052604160045260246000fd5b51906001600160a01b03821682036101fe57565b6001600160401b0381116102ae57601f01601f191660200190565b9061031a575080511561030857805190602001fd5b604051630a12f52160e11b8152600490fd5b8151158061034d575b61032b575090565b604051639996b31560e01b81526001600160a01b039091166004820152602490fd5b50803b1561032356fe608060408190527f267691be3525af8a813d30db0c9e2bad08f63baecf6dceb85e2cf3676cff56f45463dc9cc64560e01b82526000356001600160e01b031916608452602090829060249082906001600160a01b03165afa9081156100c75760009161006c575b506100fa565b905060203d6020116100c0575b601f8101601f191682019167ffffffffffffffff8311818410176100aa576100a492604052016100d3565b38610066565b634e487b7160e01b600052604160045260246000fd5b503d610079565b6040513d6000823e3d90fd5b602090607f1901126100f5576080516001600160a01b03811681036100f55790565b600080fd5b6000808092368280378136915af43d82803e15610115573d90f35b3d90fdfea2646970667358221220cfcf2c5be5b426e940952a586da86310b536d293c3b1ab48d4d69b6d5c5f409e64736f6c6343000818003300000000000000000000000070815ec0060f258b0ab45bd5ff4803a60c8496dd00000000000000000000000000000000000000000000000000000000000000400000000000000000000000000000000000000000000000000000000000000064c0c53b8b0000000000000000000000000651abe642efc46a4b9a6027b543ea7f875274f00000000000000000000000005ac7577c0b0f8e7f55b9144fbcb64ab4778084d50000000000000000000000005ac7577c0b0f8e7f55b9144fbcb64ab4778084d500000000000000000000000000000000000000000000000000000000",
        "nonce": "0x5e",
        "chainId": "0xaa36a7"
      },
      "additionalContracts": [],
      "isFixedGasLimit": false
    }
  ],
  "receipts": [],
  "libraries": [],
  "pending": [
    "0x2a330051fea14a48f7a2ad9b56365e61c58291205cc0a1e6efa0709005627741",
    "0x9d66adafd5d63100cc7869bdb7d2691779f93684e70eea38d10bc8e261c68856",
    "0xaa32032bda6986659555baa5b74563a692521e89890fe994c813b0f69d5d52e4",
    "0x8696b6bcca8336d45109ab8ce8971c46e6828c59246007b423b63e77808169b1",
    "0x9585a85efe75b4d1ac63c7993f8a83eae6dde3245117911a24e6d56da4330c6b",
    "0xfd9e6cc863ff6c4fde13059e80b9d81c84636f7d90f6a0ab55e39ae58f0378c9",
    "0x1246678fa1381147f2e8da0ed153e779214910b1504a59dd18adc02a644d18af",
    "0xfb6a848eea99cb1f2c82036c002f8f3204018919957cee2bba3f03f92e512f5e",
    "0x995b271e89978dc5494533e2d19fa0e34c57cf4acb09f2455b06cfe8018a0392",
    "0xce805988a44e073d854daae6643896d299f1cab1a9217a19a1784e4beb643c42",
    "0xfde30662ab6f894395d3c7203fb67e8899df4ee1573afad691f183f7588ee509",
    "0x5325b6c7cbb60845bf2fd77b381d13b1707b059444384125409d28839d4e417b",
    "0xe4fa82385ae3488929beadd7aeae4e4e5172827cc238598aca34a17fdd96f738",
    "0xef7ae949c561c996f2af6c92bf75087031a17ef34f8f293b0750ef44f21e7ccd",
    "0x1c1acc7580227ac006721f39800870d16b3a41145b41fdc2a2bd0ecf45f60a93",
    "0x4cf10f29513ebddc2ef94e64da1ed2c38f7d26aa33b84cb03182a15f66aeb533",
    "0xc9893bbde1df33d89be1fbe65662607759d0ec0b07bfb7b3003905ea394c639e"
  ],
  "returns": {},
  "timestamp": 1729156667,
  "chain": 11155111,
  "commit": "1dfabf8"
}